{
  "contractName": "MessageBoard",
  "abi": [
    {
      "inputs": [],
      "stateMutability": "nonpayable",
      "type": "constructor"
    },
    {
      "anonymous": false,
      "inputs": [
        {
          "indexed": true,
          "internalType": "address",
          "name": "sender",
          "type": "address"
        },
        {
          "indexed": false,
          "internalType": "string",
          "name": "content",
          "type": "string"
        },
        {
          "indexed": false,
          "internalType": "uint256",
          "name": "timestamp",
          "type": "uint256"
        }
      ],
      "name": "NewMessage",
      "type": "event"
    },
    {
      "inputs": [
        {
          "internalType": "string",
          "name": "content",
          "type": "string"
        }
      ],
      "name": "postMessage",
      "outputs": [],
      "stateMutability": "nonpayable",
      "type": "function"
    },
    {
      "inputs": [],
      "name": "getAllMessages",
      "outputs": [
        {
          "components": [
            {
              "internalType": "address",
              "name": "sender",
              "type": "address"
            },
            {
              "internalType": "string",
              "name": "content",
              "type": "string"
            },
            {
              "internalType": "uint256",
              "name": "timestamp",
              "type": "uint256"
            }
          ],
          "internalType": "struct MessageBoard.Message[]",
          "name": "",
          "type": "tuple[]"
        }
      ],
      "stateMutability": "view",
      "type": "function",
      "constant": true
    },
    {
      "inputs": [],
      "name": "getMessageCount",
      "outputs": [
        {
          "internalType": "uint256",
          "name": "",
          "type": "uint256"
        }
      ],
      "stateMutability": "view",
      "type": "function",
      "constant": true
    }
  ],
  "bytecode": "0x608060405234801561001057600080fd5b506109d7806100206000396000f3fe608060405234801561001057600080fd5b50600436106100415760003560e01c8063319339161461004657806353f5e380146100645780636630f88f14610082575b600080fd5b61004e61009e565b60405161005b91906107a0565b60405180910390f35b61006c6100aa565b604051610079919061070e565b60405180910390f35b61009c600480360381019061009791906104d5565b6101fb565b005b60008080549050905090565b60606000805480602002602001604051908101604052809291908181526020016000905b828210156101f257838290600052602060002090600302016040518060600160405290816000820160009054906101000a900473ffffffffffffffffffffffffffffffffffffffff1673ffffffffffffffffffffffffffffffffffffffff1673ffffffffffffffffffffffffffffffffffffffff16815260200160018201805461015790610900565b80601f016020809104026020016040519081016040528092919081815260200182805461018390610900565b80156101d05780601f106101a5576101008083540402835291602001916101d0565b820191906000526020600020905b8154815290600101906020018083116101b357829003601f168201915b50505050508152602001600282015481525050815260200190600101906100ce565b50505050905090565b600081511161023f576040517f08c379a000000000000000000000000000000000000000000000000000000000815260040161023690610780565b60405180910390fd5b6000808054905090507fffffffffffffffffffffffffffffffffffffffffffffffffffffffffffffffff81106102aa576040517f08c379a00000000000000000000000000000000000000000000000000000000081526004016102a190610760565b60405180910390fd5b600060405180606001604052803373ffffffffffffffffffffffffffffffffffffffff16815260200184815260200142815250908060018154018082558091505060019003906000526020600020906003020160009091909190915060008201518160000160006101000a81548173ffffffffffffffffffffffffffffffffffffffff021916908373ffffffffffffffffffffffffffffffffffffffff16021790555060208201518160010190805190602001906103699291906103ca565b506040820151816002015550503373ffffffffffffffffffffffffffffffffffffffff167f4bba44446aea2a9f27db36c95346239fd392bf3a497349684a3890d0d764077d83426040516103be929190610730565b60405180910390a25050565b8280546103d690610900565b90600052602060002090601f0160209004810192826103f8576000855561043f565b82601f1061041157805160ff191683800117855561043f565b8280016001018555821561043f579182015b8281111561043e578251825591602001919060010190610423565b5b50905061044c9190610450565b5090565b5b80821115610469576000816000905550600101610451565b5090565b600061048061047b846107ec565b6107bb565b90508281526020810184848401111561049857600080fd5b6104a38482856108be565b509392505050565b600082601f8301126104bc57600080fd5b81356104cc84826020860161046d565b91505092915050565b6000602082840312156104e757600080fd5b600082013567ffffffffffffffff81111561050157600080fd5b61050d848285016104ab565b91505092915050565b600061052283836106a0565b905092915050565b61053381610882565b82525050565b60006105448261082c565b61054e818561084f565b9350836020820285016105608561081c565b8060005b8581101561059c578484038952815161057d8582610516565b945061058883610842565b925060208a01995050600181019050610564565b50829750879550505050505092915050565b60006105b982610837565b6105c38185610860565b93506105d38185602086016108cd565b6105dc81610990565b840191505092915050565b60006105f282610837565b6105fc8185610871565b935061060c8185602086016108cd565b61061581610990565b840191505092915050565b600061062d601183610871565b91507f546f6f206d616e79206d657373616765730000000000000000000000000000006000830152602082019050919050565b600061066d601f83610871565b91507f4d65737361676520636f6e74656e742063616e6e6f7420626520656d707479006000830152602082019050919050565b60006060830160008301516106b8600086018261052a565b50602083015184820360208601526106d082826105ae565b91505060408301516106e560408601826106f0565b508091505092915050565b6106f9816108b4565b82525050565b610708816108b4565b82525050565b600060208201905081810360008301526107288184610539565b905092915050565b6000604082019050818103600083015261074a81856105e7565b905061075960208301846106ff565b9392505050565b6000602082019050818103600083015261077981610620565b9050919050565b6000602082019050818103600083015261079981610660565b9050919050565b60006020820190506107b560008301846106ff565b92915050565b6000604051905081810181811067ffffffffffffffff821117156107e2576107e1610961565b5b8060405250919050565b600067ffffffffffffffff82111561080757610806610961565b5b601f19601f8301169050602081019050919050565b6000819050602082019050919050565b600081519050919050565b600081519050919050565b6000602082019050919050565b600082825260208201905092915050565b600082825260208201905092915050565b600082825260208201905092915050565b600061088d82610894565b9050919050565b600073ffffffffffffffffffffffffffffffffffffffff82169050919050565b6000819050919050565b82818337600083830152505050565b60005b838110156108eb5780820151818401526020810190506108d0565b838111156108fa576000848401525b50505050565b6000600282049050600182168061091857607f821691505b6020821081141561092c5761092b610932565b5b50919050565b7f4e487b7100000000000000000000000000000000000000000000000000000000600052602260045260246000fd5b7f4e487b7100000000000000000000000000000000000000000000000000000000600052604160045260246000fd5b6000601f19601f830116905091905056fea2646970667358221220c71643a42b8d96715fb794abe2ba953446297f250ffad0f686f35e00b6fe75cd64736f6c63430008000033",
  "immutableReferences": {},
  "source": "// SPDX-License-Identifier: MIT\npragma solidity ^0.8.0;\n\ncontract MessageBoard {\n    struct Message {\n        address sender;\n        string content;\n        uint256 timestamp;\n    } Message[] private messages;\n\n    event NewMessage(address indexed sender, string content, uint256 timestamp);\n\n    // Constructor to initialize any required state if needed\n    constructor() {\n        // No initialization is necessary for your contract, but an empty constructor ensures proper deployment\n    }\n\n    function postMessage(string memory content) public {\n        require(bytes(content).length > 0, \"Message content cannot be empty\");\n\n        uint256 currentLength = messages.length;\n        require(currentLength < type(uint256).max, \"Too many messages\"); // Safety check\n\n        messages.push(Message({\n        sender: msg.sender,\n        content: content,\n        timestamp: block.timestamp\n        }));\n\n        emit NewMessage(msg.sender, content, block.timestamp);\n    }\n\n    /*function postMessage(string memory content) public {\n        require(bytes(content).length > 0, \"Message content cannot be empty\");\n\n        messages.push(Message({\n        sender: msg.sender,\n        content: content,\n        timestamp: block.timestamp\n        }));\n\n        emit NewMessage(msg.sender, content, block.timestamp);\n    }*/\n\n    function getAllMessages() public view returns (Message[] memory) {\n        return messages;\n    }\n\n    function getMessageCount() public view returns (uint256) {\n        return messages.length;\n    }\n}\n",
  "sourcePath": "/var/www/html/Blockchain-Demo/message-board/contracts/MessageBoard.sol",
  "compiler": {
    "name": "solc",
    "version": "0.8.0+commit.c7dfd78e.Emscripten.clang"
  },
  "schemaVersion": "3.4.16",
  "updatedAt": "2024-12-02T09:38:11.214Z",
  "networkType": "ethereum",
  "devdoc": {
    "kind": "dev",
    "methods": {},
    "version": 1
  },
  "userdoc": {
    "kind": "user",
    "methods": {},
    "version": 1
  }
}